:020000040800F2
:10000000C80F00200D02000815020008D9250008BD
:10001000190200081B0200081D0200080000000071
:100020000000000000000000000000001F020008A7
:10003000210200080000000023020008E543000838
:1000400027020008270200082702000827020008EC
:1000500027020008270200082702000827020008DC
:1000600027020008270200082702000827020008CC
:1000700027020008270200082702000827020008BC
:100080002702000827020008990600082702000836
:100090002702000827020008270200089D0A00081E
:1000A000114400083944000827020008270200080C
:1000B0005144000827020008270200082702000810
:1000C000270200082702000827020008270200086C
:1000D000270200082702000827020008A153000891
:1000E000270200082702000827020008270200084C
:1000F000270200082702000827020008270200083C
:10010000270200082702000827020008270200082B
:10011000270200082702000827020008270200081B
:10012000270200082702000827020008270200080B
:1001300000F002F800F05AF80AA090E8000C82449F
:100140008344AAF10107DA4501D100F04FF8AFF27C
:10015000090EBAE80F0013F0010F18BFFB1A43F0A5
:1001600001031847B85C0000D85C00000A444FF057
:10017000000C10F8013B13F0070408BF10F8014B06
:100180001D1108BF10F8015B641E05D010F8016B4B
:10019000641E01F8016BF9D113F0080F1EBF10F8AF
:1001A000014BAD1C0C1B09D16D1E58BF01F801CBD2
:1001B000FAD505E014F8016B01F8016B6D1EF9D555
:1001C0009142D6D37047000000230024002500266A
:1001D000103A28BF78C1FBD8520728BF30C148BFAA
:1001E0000B6070471FB51FBD10B510BD00F019FAA8
:1001F0001146FFF7F7FF05F071F900F037FA03B485
:10020000FFF7F2FF03BC00F03FFA00000948804707
:1002100009480047FEE7FEE7FEE7FEE7FEE7FEE7E8
:10022000FEE7FEE7FEE7FEE704480549054A064B00
:10023000704700000D44000831010008C809002083
:10024000C80F0020C80B0020C80B002030B400F1FC
:100250000C046830029D2EC04FF0000C00F824CC36
:1002600000F823CC6146783804E0A4680CF1010260
:1002700002F0FF0C002C18BFBCF1050FF5D30CEBFE
:100280004C0200EB8202916080F848C00188642231
:1002900051434FF47A72B1FBF2F180F8561030BC42
:1002A00070472DE9F04704460026D4E91A89C18039
:1002B00080F8556080F8586080F8536000F10C05B4
:1002C00080F854600F46484605F0A5F800214046E6
:1002D00003F0CDFF6088784301B2484605F0F6F898
:1002E00000221146404603F043FFA8882A8878433D
:1002F00001B2404603F03CFF68882A88784301B287
:10030000484605F0A6F82888218848434FF47A71BA
:10031000B0FBF1F0401CA080A868A06084F8576092
:10032000BDE8F0872DE9F05F044680884FF0010AB0
:100330000025D34600287DD0401EA08094F85800A8
:1003400030B994F855000028206F06D041688847DE
:10035000A08800286ED000F0DFB8C16879B194F8A9
:100360005710491CC9B284F8571094F8562091428E
:1003700005D9C168884784F8535084F85750206FD6
:1003800001698847002808BF84F8535006D094F8C4
:1003900053007F283CBF401C84F85300206FC16885
:1003A000002994F8531005D094F85620B1EB520F61
:1003B00002D0CDE77F29CBD1006803F060FE0600B4
:1003C00048BF70420FFA80F8B4F90600002802DD39
:1003D000002E02DD04E0002E02DB84F85350B7E764
:1003E000B4F84A101FFA88F0884205D9206F416896
:1003F000884784F855B0ABE7B4F84C108842A7D9C9
:100400004FF000094F46E06E05F01FF8206F81683D
:100410008847A068002808BFA5806ED0B0F9020008
:10042000404512DAA168886848B3B1F90290B1F981
:10043000047000E024E0A06094F85810491C84F88F
:100440005810B0F902004045ECDBA1680022B1F978
:100450000200B1F90410A0EB0900C91B714391FB24
:10046000F0F0E1883844484301B2A06E03F080FE0A
:10047000A4F804B004F15C00A060062039E0A58077
:10048000A068C8B394F8580010B101280BD00FE051
:10049000606F03F020F984F854B0606F03F01FF927
:1004A00084F8535004E0606F03F017F984F8545057
:1004B000A068E28881885143028809B2A06E03F0E7
:1004C00057FEA068E28841885143028809B2E06E75
:1004D00004F0BFFFA1682288088850434FF47A7265
:1004E000B0FBF2F0401CA0808868A06094F858002F
:1004F000401C84F858000FE0FFE794F8481094F887
:100500005800491E884208BF4FF0000A04D007284F
:1005100004BF84F85850A5805046BDE8F09F70B5E0
:1005200004468088012520B1401E0004000CA080F4
:1005300026D1A068002808BF002521D08188E28844
:100540005143028809B2A06E03F012FEA068E2884F
:1005500041885143028809B2E06E04F07AFFA16835
:100560002288088850434FF47A72B0FBF2F0401CA6
:10057000A0808868A06094F85800401C84F8580057
:10058000284670BD014600208968002908BF012067
:10059000704710B50021C46E81608180204603F051
:1005A0006EFD01462046BDE81040002204F051BF18
:1005B0000146002091F8582091F849108A4228BF3E
:1005C0000120704701EB410100EB810082817047FF
:1005D00001EB410100EB8100C281704701EB410159
:1005E00000EB81000282704701EB410100EB8100CA
:1005F0008089704701EB410100EB8100B0F90E00EA
:10060000704701EB410100EB8100B0F91000704729
:1006100090F84800704790F8540070477047704752
:100620007047754600F02CF8AE4605006946534603
:1006300020F00700854618B020B5FFF7F5FDBDE8AE
:1006400020404FF000064FF000074FF000084FF039
:10065000000B21F00701AC46ACE8C009ACE8C009CA
:10066000ACE8C009ACE8C0098D46704710B5044637
:10067000AFF300802046BDE81040FFF7C0BD00008A
:10068000004870476409002001491820ABBEFEE70E
:1006900026000200704700000348016821F00C01A9
:1006A000016003F0BBBF00000024014070B50446A8
:1006B0000068816811F0010F25D0816821F00101E7
:1006C000816000F0F1FE05462068806810F0010F9F
:1006D00019D000BF00F0E8FE401B02280ED92068A8
:1006E000806810F0010F09D0A06A40F01000A062ED
:1006F000E06A40F00100E062012070BD206880687F
:1007000010F0010FE6D1002070BD10B402460FFAC0
:1007100081FC08460CFB0CF40B1403FB034114880A
:1007200064438C4224BF10BC704792F8B240C4EBC3
:100730001161C9B202EB41018A8810BC0CFB02F1C5
:100740004FEAE17C01EB5C41C91361F30F0003FB4D
:1007500002F1CA1701EB5241C91361F31F40704700
:10076000038990F80AC01B0A4268012903D0BCF132
:10077000010F03D004E0BCF1010F01D0536100E090
:1007800013610170704770B504468089012530B14E
:10079000401E0004000CA08118BF002501D028468F
:1007A00070BDB4F91400217E90FBF1F001B2A06895
:1007B00000F05EF90120A073F1E7C07B7047836011
:1007C000C0E9001200218173C1737047807B7047BC
:1007D000C173704710B5044600224068114604F00A
:1007E00038FEB4F91410606804F070FE002120682F
:1007F00003F03DFD00221146206803F0B9FCE28AB7
:10080000B4F91210206803F0B3FCE08A218A48434F
:100810004FF47A71B0FBF1F0401CA08110BD016A69
:10082000496A826E89B25143CA1701EB1241091419
:10083000C388C18042784A4312B28280C91A836851
:1008400009B219448160104670472DE9F041076AEA
:10085000002490F875507B6A2246B0F870C0264696
:10086000A0F870403F68BCF1010F07F0100884BF8A
:100870004FF0010C80F879C0B0F86E70B0F872C01B
:10088000B8F1100F5ED09C4594BF4FF000084FF0B8
:100890000108A3EB0C0C08FB07CC90F8787000EB78
:1008A0008707C7F828C0002D08D900EB820C521C1E
:1008B000DCF828C0D2B264449542F6D8426A02FB02
:1008C00004FCB0F86E2090F8754062439CFBF2F295
:1008D0000A80B0F80CC0A2EB0C0CA0F812C0828108
:1008E00090F87820B0F86CC000EB8202926A02FBAC
:1008F0000CF290F801C002FB0CF2B0F86EC092FB53
:10090000FCF2D0F81CC00CFB02F2B0F81AC092FB4B
:10091000FCF2C281A0F8723090F87820521C80F866
:10092000782090F8782090F875309A4228BF80F8A7
:10093000786090F87920B2B180F87660C2780021B2
:10094000027013E09C4534BF4FF001084FF00008DF
:10095000A3EB0C0C08FB17CC90F8787000EB870722
:10096000C7F828C09FE703F09DFB01460846BDE895
:10097000F081000090F875200021002A88BF002235
:1009800009D900BF00EB8103491C9A6290F87530C9
:10099000C9B28B42F6D8012180F876107047B0F8C2
:1009A0007010491CA0F87010002070472DE9F0016C
:1009B000016A00224A62B0F86E204FF0FF33B3FBA9
:1009C000F2F28266B0F86C20DFF8A0C002EB82027F
:1009D0005200426290F8772001F1180516059CF844
:1009E000002053191F680CF10702F02492F80080D0
:1009F00004FA08F827EA080792F80080360C06FA8D
:100A000008F63E431E6090F877301E059CF80230D1
:100A10002B44D3F800C09578AC402CEA040C340C7D
:100A2000EAB204FA02F24CEA02021A606FF0010222
:100A30000A61CA6842F00102CA600A6842F0010213
:100A40000A6090F875200021002A8EBF0023BDE8BF
:100A5000F001704700EB810C491CC9B2CCF828307A
:100A60008A42F7D8BDE8F00170470000F85D000841
:100A7000026AC18043784B4383804FF6FF7300299D
:100A8000B8BF494289B2B8BF591AB0F86E0048439E
:100A9000B0FBF3F080B25062704700000448016878
:100AA00011F0400F08BF70474021016004F030BBD7
:100AB0001404014072B6FEE7002190B1437801783A
:100AC00000221944002B09D900EB020C521C9CF89F
:100AD00002C0D2B2614489B29342F5D801EB112031
:100AE000C1B208467047002141820175417580F806
:100AF000961080F8971080F8981080F8991080F878
:100B00009A1080F81B1180F81C1180F81D11704795
:100B1000DDF800C0002818BF80E80E107047000004
:100B200000EB400101EB001210B5084901EB420453
:100B300094F82410002918BF10BD054951F8200071
:100B400003F0E0FAE083208210BD0000EC070020F3
:100B50009805002010B5044600EB440000EB041299
:100B60001248002100EB4202114811605160D1602F
:100B70001161D183C2F81610C2F81A10118450F80E
:100B8000240002F010FC0B48002150F8240002F071
:100B90000AFC094850F8240003F0E2FA074850F82C
:100BA0002400BDE8104002F096BD0000EC070020D4
:100BB000A0050020A405002098050020B405002011
:100BC0007047000070B483B00022029290F8243085
:100BD0001446012B01BF022003B070BC70470123F3
:100BE00080F824308368FBB1D1F804C00B691F255D
:100BF0009C452DD81E05A3EB0C03C3F10303D1F8CC
:100C000000C003EB83030CFA03FC05FA03F343F47F
:100C100040150368A6F5801646EA0C0C9E6B26EA82
:100C200005054CEA050C21E04B68012B05D0826AD2
:100C300042F02002826201221AE00368D3F838C031
:100C40000D686FF3150C4CEAC53CC3F838C00FE0D3
:100C5000A3EB0C03C3F1030303EB830305FA03F3D4
:100C600043F4401C03689D6B25EA0C0CC3F838C0A4
:100C70000368D3F808C01CF0010F03D04B7D012B93
:100C800016D01EE0D3F808C02CF00105A3F1804C6B
:100C9000BCF59E3CD1F818C025F4E04504BFBCF576
:100CA000C04F4FF4804C45EA0C0CC3F808C0E5E790
:100CB0008B69B3F5E04F08D0826A42F0200282626D
:100CC00001220B7D012B08D00EE00368D3F804C08D
:100CD0004CF4806CC3F804C0F3E74B7DCBB1826A5F
:100CE00042F02002826201220B6805684FF0070C77
:100CF0000A2B16D3EE680A3B03EB43030CFA03FC02
:100D000026EA0C0C8E6806FA03F34CEA0303EB6048
:100D100014E00368D3F804C04CF4805CC3F804C04A
:100D2000E2E72E6903EB43030CFA03FC26EA0C0C02
:100D30008E6806FA03F34CEA03032B610B68102B51
:100D400018BF112B06D10368D3F808C04CF4000C6F
:100D5000C3F808C04B68012B13D0022B1CD0032B07
:100D6000036824D0D3F820C0CD686FF30B0C4CEA95
:100D7000050CC3F820C00B68102B18BF112B20D016
:100D80002AE00368D3F814C0CD686FF30B0C4CEA6B
:100D9000050CC3F814C0EEE70368D3F818C0CD689B
:100DA0006FF30B0C4CEA050CC3F818C0E3E7D3F85B
:100DB0001CC0CD686FF30B0C4CEA050CC3F81CC0CB
:100DC000D9E70368A3F1804CBCF5923C0AD0816A54
:100DD00041F020018162012280F8244003B01046D6
:100DE00070BC7047D3F808C01CF4000FF4D1D3F8DE
:100DF00008C04CF4000CC3F808C009681029EBD1F6
:100E00001749184B0968B1FBF3F101EB8101490067
:100E100002910091E0D0B1F1004F1BD20029D8BF60
:100E2000002105DD11F0010102D0029B5B1E02933F
:100E3000009B491C5B1C9942CEDA00BFDDF808C05C
:100E4000891CACF1010CACF1010CCDF808C0994241
:100E5000F4DBC1E70299491E0291FCD1BCE7000016
:100E6000EC05002040420F0070B483B04FF0000C3E
:100E7000CDF808C090F824206446012A01BF022062
:100E800003B070BC7047012280F824204A681F23F9
:100E9000072A0DD205686E6B521E02EB8202934048
:100EA00026EA03030E6806FA02F21A436A631BE09D
:100EB00005680D2A0CD22E6BD21F02EB82029340E2
:100EC00026EA03030E6806FA02F21A432A630BE0CD
:100ED000EE6A0D3A02EB8202934026EA03030E68A3
:100EE00006FA02F21A43EA620A68072503680A2A28
:100EF0000CD3DE680A3A02EB4202954026EA050569
:100F00008E6806FA02F22A43DA600AE01E6902EBF2
:100F10004202954026EA05058E6806FA02F22A4347
:100F20001A610A68102A18BF112A0BD10268A2F1AF
:100F30008043B3F592330BD0816A41F02001816286
:100F40004FF0010C80F8244003B0604670BC70473D
:100F5000936813F4000FF5D1936843F40003936092
:100F600009681029EED11549154A0968B1FBF2F15B
:100F700001EB8101490002910091E3D0B1F1004FF2
:100F800016D20029D8BF002105DD11F0010102D0E1
:100F9000029A521E0292009A491C521C9142D1DAC6
:100FA000029B891C5B1E5B1E02939142F8DBC9E722
:100FB0000299491E0291FCD1C4E70000EC05002013
:100FC00040420F002DE9F04104004FF0000604BF3D
:100FD0000120BDE8F081A06A002528B9E56284F807
:100FE0002450204600F090F82046FFF75FFB0146B2
:100FF000A06A10F0100F08BF002904D0A06A40F0CA
:101000001000A06276E0A06A20F4885040F0020050
:10101000A0622268A2F18040B0F59E30E06904BF72
:10102000B0F5402F4FF4002094F80CC040EA4C0378
:10103000606843EA0003A068B0F5807F16BF01280E
:101040004FF480700020277D012F0ED1BCF1000FDE
:1010500021D0D4F828C04CF0200CC4F828C0D4F813
:101060002CC04CF0010CC4F82CC0D2F804C02CF4F5
:10107000694C4CEA0000506020688268DFF87CC050
:1010800002EA0C021A438260A068B0F5807F18BFA4
:1010900001280FD109E01A4FD4F818C007EB4C3CD7
:1010A0004CEA000040F40060DFE7208A4FEA00507D
:1010B000A0F580162068C26A22F4700242EA060295
:1010C000C262206880680F4A00EA0200984207D195
:1010D000E562A06A20F0020040F00100A0620AE090
:1010E000A06A20F0020040F01000A062E06A40F028
:1010F0000100E06201210846BDE8F081FDF7E1FF53
:1011000000E0FFFFFE0E1FFF70B586B000250095C2
:10111000019502950395026806463249072003248B
:10112000314BA2F1804CBCF5923C1ED0A2F1804C18
:10113000BCF5943C1CBF06B070BD8A6942F4806265
:101140008A618A6902F4806204928A6942F010021C
:101150008A618969CDE9000401F0100104916946B2
:10116000184600F099F806B070BD8A6942F4007222
:101170008A618A6902F4007204928A6942F010025C
:101180008A618A6902F0100204928A6942F00402BC
:101190008A618969CDE9000401F00401049169467E
:1011A000184600F079F82820CDE9000469460F4878
:1011B00000F072F80F4C0E48C4E900058015A560D8
:1011C000C4E90350800060612020C4E90605204680
:1011D00000F012F8002818BFFFF76CFC346266625A
:1011E00006B070BD00100240001001400008014030
:1011F000080002407C070020002804BF012070473F
:101200001F4B01681F4A994208D21F4B0B44A2FB97
:1012100003321209920002641C4A07E01C4B0B4483
:10122000A2FB03321209920002641A4AC26310B48C
:10123000022280F821200A68D0E9013C43EA0C032D
:10124000D0E903C44CEA040C43EA0C03D0F814C000
:101250006FF30D1243EA0C03D0F818C043EA0C03F5
:10126000D0F81CC043EA0C031A430A6000218163D2
:10127000012280F8212080F8201010BC0846704719
:1012800008040240CDCCCCCCF8FFFDBF00000240EA
:10129000F8FBFDBF0004024000230A689C46002AB8
:1012A00008BF70472DE9F84F784EDFF8DC914FF01A
:1012B00001080F2706F1040E0A6808FA03F4224019
:1012C000A2427CD14D68A5F1805AAAF5881A4D45F5
:1012D00000F0C98074DC032D08BF4FF0000C1BD058
:1012E0000DDC002D6DD0012D08BFD1F80CC013D03E
:1012F000022D04BFD1F80CC00CF1080C0CE0112D2C
:1013000004BFD1F80CC00CF1040C05D0122D04BFA1
:10131000D1F80CC00CF10C0CB2F5807F34BF05463F
:10132000051D4FEA830428BF203CD5F800A007FA2A
:1013300004FB2AEA0B0A0CFA04F44AEA04042C60BF
:101340004C6814F0805F74D0514CA56945F00105DC
:10135000A561A46904F00104009423F0030404F1DE
:10136000804505F58035D5F808A04FEA83744FEA2B
:10137000147407FA04FB2AEA0B0AA0F1804BBBF5B0
:10138000843B2CD0A0F1804BBBF5863B08BF4FF0CF
:10139000010B24D0A0F1804BBBF5883B08BF4FF078
:1013A000020B1CD0A0F1804BBBF58A3B08BF4FF06D
:1013B000030B14D0A0F1804BBBF58C3B02E038E06E
:1013C0003EE050E008BF4FF0040B08D0A0F1804B86
:1013D000BBF58E3B0CBF4FF0050B4FF0060B0BFA25
:1013E00004F444EA0A04AC604C6814F4803F3468A6
:1013F00014BF1443944334604C6814F4003FDEF887
:10140000004014BF14439443CEF800404C6814F4D9
:10141000801F204C256814BF1543954325604C68F8
:1014200014F4001F1C4C256814BF2A4325EA02024D
:1014300022600A685B1CDA407FF43EAFBDE8F88F9B
:10144000BAF5881F0FD007DCBAF5803F18BFBAF590
:10145000801F7FF461AF06E0BAF5001F18BFBAF530
:10146000041F7FF459AFD1F808C0BCF1000F08BFCA
:101470004FF0040C3FF450AFBCF1010F4FF0080CDB
:101480000CBF0461446147E70000111000040140F3
:1014900000100240080401400C040140002A08BF6B
:1014A000090401617047000001488068704700002E
:1014B000E00500200248816802781144816070478D
:1014C000E0050020074810B5016841F010010160F7
:1014D000032000F08DF8042000F006F800F024F856
:1014E000002010BD0020024070B50D4D04464FF4A1
:1014F0007A712878B1FBF0F00A490968B1FBF0F085
:1015000000F000FD48B9102C07D200222146501EE1
:1015100000F03CF800206C6070BD012070BD000040
:10152000E0050020EC0500200E4808B5816941F077
:1015300001018161816901F001010091C16941F0FE
:101540008051C161C06900F080500090042000F01B
:101550004FF80548416821F0E06141F000714160B9
:1015600008BD000000100240000001400028B8BF84
:10157000704700F01F01012202FA01F140098000CA
:1015800000F1E020C0F8001170470000174B10B4C4
:101590001B68C3F30223C3F1070CBCF1040F88BF1F
:1015A0004FF0040C1C1D072C34BF0023DB1E01244C
:1015B00004FA0CFCACF1010C0CEA0101994004FAAC
:1015C00003F35B1E1A40114300284FEA0111A1BF2B
:1015D00000F1E02080F8001410BC704700F00F000C
:1015E00000F1E02080F8141D10BC70470CED00E005
:1015F000074900F007000A684FF6FF031A4042EA65
:10160000002040F0FD7040F08060086070470000EE
:101610000CED00E02DE9F84304460078DFF8148172
:1016200010F0010F6AD0D8F81C00002710F0805F7E
:101630000BD1D8F81C0040F08050C8F81C00D8F836
:101640001C00012700F0805000903B4E306810F4E1
:10165000807F14D1306840F480703060FFF724FF41
:101660000546306810F4807F09D100BFFFF71CFFEA
:10167000401B64282BD8306810F4807FF6D0D8F84F
:10168000200010F440702AD0A18801F440718142FA
:1016900025D0D8F82000012220F4407127480260AC
:1016A00000220260C8F8201011F0010F17D0FFF7D8
:1016B000FBFE0546D8F8200010F0020F08BF41F2EB
:1016C00088360CD1FFF7F0FE401BB04202D9032050
:1016D000BDE8F883D8F8200010F0020FF2D0D8F857
:1016E0002000616820F440700843C8F820002FB142
:1016F000D8F81C0020F08050C8F81C00207810F0AA
:10170000020F07D0D8F80400A16820F44040084335
:10171000C8F80400207810F0100F07D0D8F80400A3
:10172000616920F480000843C8F804000020BDE887
:10173000F883000000100240007000404004424264
:10174000002804BF012070472DE9F043DFF89081A5
:10175000054685B0D8F800000E4600F00700B042FC
:101760000CD2D8F8000020F007003043C8F8000081
:10177000D8F8000000F00700B04265D12868594C45
:1017800010F0020F14D010F0040F03D0606840F482
:10179000E0606060287810F0080F03D0606840F4C3
:1017A000605060606068A96820F0F00008436060E5
:1017B000287810F0010F34D06868012821D0216802
:1017C000022823D011F0020F3ED0616821F00301FE
:1017D00008436060FFF768FE07466068696800F0CC
:1017E0000C00B0EB810F18BF41F2883919D000BF4F
:1017F000FFF75AFEC01B48450CD905B00320BDE8D1
:10180000F083216811F4003FDFD11DE011F0007F6B
:10181000DBD119E06068696800F00C00B0EB810F63
:10182000E6D1D8F8000000F00700B04210D9D8F88F
:10183000000020F007003043C8F80000D8F800008E
:1018400000F00700B04203D005B00120BDE8F083EE
:10185000287810F0040F05D06068E96820F4E06093
:1018600008436060287810F0080F06D06068296986
:1018700020F4605040EAC10060601B490FC98DE848
:101880000F001A48006804906168194801F00C02C2
:10189000042A14D0082A12D1C1F3834211F4803FE4
:1018A0001DF8020004BF1349484308D0616804AA28
:1018B000C1F34041515C0E4A5043B0FBF1F0616806
:1018C0000D4AC1F30311515CC8400C4908600C4833
:1018D0000068FFF709FE05B00020BDE8F0830000B6
:1018E0000020024000100240B4190008C41900088A
:1018F00000127A0000093D00E05D0008EC050020C0
:10190000E405002001490120C864704700004242FC
:101910000148006870470000EC05002004480549B4
:1019200000684968044AC1F30221515CC84070470D
:10193000EC05002000100240F05D00080448054955
:1019400000684968044AC1F3C221515CC84070472D
:10195000EC05002000100240F05D000815A186B0E3
:101960000FC98DE80F0017A0174A0068049051684E
:10197000164801F00C03042B04BF06B07047082B77
:101980001CBF06B07047C1F3834311F4803F1DF8BC
:10199000030001BF0E49484306B07047516804AACE
:1019A000C1F34041515C094A06B05043B0FBF1F02D
:1019B0007047000002030405060708090A0B0C0D16
:1019C0000E0F1010010200000010024000127A00F9
:1019D00000093D00002804BF012070472DE9F84FA1
:1019E00004460078E84D10F0010F59D0686800F007
:1019F0000C00042808D0686800F00C0008280CD1FE
:101A0000686810F4803F08D0286810F4003F47D081
:101A10006068002800F0B28142E06068B0F5803F65
:101A200004BF286840F480300AD010B1B0F5A02F70
:101A300011D0286820F480302860286820F48020A5
:101A400028606068D0B1FFF72FFD0646286810F4C3
:101A5000003F08D024E0286840F4802028602868EF
:101A600040F48030ECE7FFF71FFD801B642800F294
:101A70003681286810F4003FF5D011E0FFF714FD1F
:101A80000646286810F4003F0AD000BFFFF70CFD9F
:101A9000801B642800F22381286810F4003FF5D1F0
:101AA0002078BA4E10F0020F4FF0010B4FF00008F3
:101AB00045D0686810F00C0F14D0686800F00C0076
:101AC000082804BF686810F4803F0BD0206918B361
:101AD000C6F800B0FFF7E8FC0746286810F0020FD0
:101AE00009D011E0286810F0020F1CBF20690128FE
:101AF0000AD000F043B9FFF7D7FCC01B02287DD8FD
:101B0000286810F0020FF6D02868616920F0F8000C
:101B100040EAC100286012E0C6F80080FFF7C4FC6C
:101B20000746286810F0020F09D000BFFFF7BCFC81
:101B3000C01B022862D8286810F0020FF6D1207866
:101B400010F0080F35D09248A169F9B1C0F800B083
:101B5000FFF7AAFC0746686A10F0020F09D100BF20
:101B6000FFF7A2FCC01B022848D8686A10F0020FD9
:101B7000F6D0884801684FF4FA50B1FBF0F00090BD
:101B800000BF0098411E0091FAD212E0C0F8008018
:101B9000FFF78AFC0746686A10F0020F09D000BF01
:101BA000FFF782FCC01B022828D8686A10F0020FD9
:101BB000F6D1207810F0040F79D0E8694FF0000AD0
:101BC00010F0805F09D1E86940F08050E861E86971
:101BD0004FF0010A00F080500090DFF8BC91D9F876
:101BE000000010F4807F19D1D9F8000040F4807013
:101BF000C9F80000FFF758FC074600E06FE0D9F88D
:101C0000000010F4807F09D1FFF74EFCC01B642850
:101C100065D8D9F8000010F4807FF5D0E06801287D
:101C200004BF286A40F0010009D008B1052813D08C
:101C3000286A20F001002862286A20F00400286247
:101C4000E06841F28837D0B1FFF72EFC8146286A60
:101C500010F0020F08D023E0286A40F00400286248
:101C6000286A40F00100EAE7FFF71EFCA0EB09003C
:101C7000B84234D8286A10F0020FF5D010E0FFF710
:101C800013FC8146286A10F0020F09D0FFF70CFC04
:101C9000A0EB0900B84222D8286A10F0020FF5D153
:101CA000BAF1000F03D0E86920F08050E861E069E4
:101CB000F0B3696801F00C01082950D00228C6F879
:101CC00060800FD0FFF7F0FB0446286810F0007F1B
:101CD00057D000BFFFF7E8FB001B02283AD90320CA
:101CE000BDE8F88FFFF7E0FB0746286810F0007F9B
:101CF00009D000BFFFF7D8FBC01B0228EFD8286827
:101D000010F0007FF6D1206AB0F5803F05D16868F9
:101D1000A16820F4003008436860D4E90801084352
:101D2000696821F4741108436860C6F860B000E087
:101D300027E0FFF7B9FB0446286810F0007F20D1A8
:101D4000FFF7B2FB001B0228C9D8286810F0007FFB
:101D5000F6D016E0286810F0007FBBD111E0012812
:101D600008BFBDE8F88F6868226A00F480319142AC
:101D700004D1616A00F47010884202D00120BDE8ED
:101D8000F88F0020BDE8F88F0010024000004242AA
:101D900080044242EC05002000700040002804BF8F
:101DA0000120704770B50446406A002500281CBF1A
:101DB0002561656104D0A56294F8510058B905E029
:101DC0006068B0F5827F18BFE561F4E784F8505091
:101DD000204600F03FF8022084F851002068016896
:101DE00021F040010160A088218900F4827001F493
:101DF00004410843A18901F400610843217C01F0FA
:101E000002010843217D01F001010843218B01F407
:101E100000710843217F01F03801084394F8201035
:101E200001F080010843218D01F40051084321682D
:101E30000860A069042101EA104021684860206818
:101E4000C16921F40061C1616565012084F8510018
:101E5000002070BD70B586B00024009401940294F7
:101E600003940068A0F18041B1F598311CBF06B021
:101E700070BD1F48816941F480518161816901F41D
:101E800080510491816941F004018161816901F00F
:101E900004010491816941F0080181618069022592
:101EA00000F0080004904FF40040CDE9000503263F
:101EB000694603960F48FFF7EFF92820CDE90005A2
:101EC0000D4D694603962846FFF7E6F91020CDE947
:101ED0000004694628460294FFF7DEF90748416886
:101EE00041F0010141F0E061416006B070BD0000C9
:101EF0000010024000080140000C014000000140B9
:101F000070470000411EB1F1807F24BF012070475F
:101F10004FF0E0204161054AF02182F8141D0021B4
:101F20008161072101610020704700000FE000E09F
:101F300010B5FFF7E5FF10BD90F83C20012A04BF63
:101F400002207047012280F83C20CA688B6822F486
:101F500040721A434B6822F480621A430B6822F4E1
:101F600000621A430B6922F480521A434B6922F42F
:101F700000521A43C96922F4804211430268516435
:101F8000002180F83C100846704790F83C20012A58
:101F900004BF0220704730B4012380F83C30022295
:101FA00080F83D2002685468D2F808C00D6824F01B
:101FB00070042C4354600268A2F18044B4F5963456
:101FC0001CBFA2F18044B4F59A3411D0B2F1804F15
:101FD0001CBFA2F18044B4F5806409D0A2F1804412
:101FE000B4F500641CBFA2F18044B4F5406405D18F
:101FF00049682CF0800C41EA0C01916080F83D307A
:10200000002180F83C1030BC08467047002804BF0F
:102010000120704710B5044690F83D0028B9002013
:1020200084F83C00204600F01FF8022084F83D00B0
:10203000211D206802F01EFA012084F8460084F871
:102040003E0084F83F0084F8400084F8410084F8A2
:10205000420084F8430084F8440084F8450084F882
:102060003D00002010BD0000006881B0A0F180415B
:10207000B1F596311CBF01B070470548816941F444
:1020800000618161806900F40060009001B07047D8
:1020900000100240002804BF0120704770B50446BC
:1020A00090F83D000D4628B9002084F83C002046F9
:1020B00000F052F8022084F83D002068816821F089
:1020C000070121F480418160211D206802F0D2F9CE
:1020D000206882688369016AD5F800C023F0030391
:1020E000AE694CEA020223F4407343EA0623D5F8B2
:1020F00008C0EE694CEA030323F0FC0323F47C439D
:10210000D5F80CC043EA06234CEA0303D5F810C007
:102110002E6A4FEA0C1C4CEA063C4CEA0303D5F845
:1021200004C06D6921F0220141EA05114CEA010168
:1021300082602068836120680162012084F8460083
:1021400084F83E0084F83F0084F8420084F843009D
:1021500084F83D00002070BD00B585B000210091DD
:102160000191029103910068B0F1804F1CBF05B04E
:1021700000BD0C48C16941F00101C161C16901F0B4
:1021800001010491816941F004018161806969461E
:1021900000F004000490032000900348FFF77CF84F
:1021A00005B000BD001002400008014030B585B008
:1021B000002100910191029103910068A0F18041FA
:1021C000B1F596311CBF05B030BD1348816941F0AF
:1021D00008018161816901F008010491816941F080
:1021E000040181618069022400F0040004904FF42E
:1021F0006040CDE900040325694603950748FFF7D1
:102200004BF84FF4E060CDE90004694603950448BB
:10221000FFF742F805B030BD00100240000C01404D
:1022200000080140F0B490F83C30012B02BF0220BE
:10223000F0BC7047012380F83C30834BDFF80CC2C0
:1022400042B1042A44D0082A7ED00C2A00F0C38070
:1022500000F0F2B80268146A24F001041462146AEF
:10226000556896690F6826F073063E438F6824F020
:1022700002043C439A4218BF624506D1CF6824F05D
:10228000080447EA040424F004049A4218BF624593
:1022900009D1D1F814C025F440734CEA0303D1F8F6
:1022A00018C04CEA0305556096614B68536314628D
:1022B0000268936943F0080393610268936923F00D
:1022C0000403936102689369096943EA010140E0EC
:1022D0000268146A24F010041462156A546896693E
:1022E0000F6826F4E64646EA07268F6825F02005A3
:1022F00045EA07159A4218BF624506D1CF6825F016
:10230000800545EA071525F040059A4218BF624549
:1023100009D1D1F814C024F4406343EA8C03D1F806
:1023200018C043EA8C04546096614B68936315624D
:102330000268936943F4006393610268936923F42C
:1023400080639361026800E005E09369096943EAEC
:102350000121916170E00268146A24F480741462AF
:10236000146A5568D6690F6826F0730647EA0606B0
:102370008F6824F4007444EA07249A4218BF624527
:1023800006D1CF6824F4006444EA072424F480646E
:102390009A4218BF624509D1D1F814C025F44053C0
:1023A00043EA0C13D1F818C043EA0C155560D66106
:1023B0004B68D36314620268D36943F00803D361A6
:1023C0000268D36923F00403D3610268D369096901
:1023D00043EA01012FE00268146A24F48054146275
:1023E000166A5468D5690F6825F4E64545EA07255D
:1023F0008F6826F4005646EA07369A4218BF6245AF
:1024000005D1D1F814C024F4804343EA8C145460FD
:10241000D5614B68136416620268D36943F40063A4
:10242000D3610268D36923F48063D3610268D369FE
:10243000096943EA0121D1614FF0000180F83C10A5
:10244000F0BC084670470000002C014000340140F9
:10245000002804BF0120704710B5044690F83D00E5
:1024600028B9002084F83C00204600F01EF8022025
:1024700084F83D00211D206801F0FCFF012084F854
:10248000460084F83E0084F83F0084F8400084F859
:10249000410084F8420084F8430084F8440084F842
:1024A000450084F83D00002010BD704770B504461B
:1024B00090F83C00012804BF022070BD012584F87B
:1024C0003C50022084F83D00204602F01DF8010037
:1024D0004FF0000005D084F83D5084F83C00012006
:1024E00070BD2168CA6822F04002CA602168CA68CB
:1024F00022F48042CA6084F83D5084F83C000020F9
:1025000070BD002804BF0120704770B5044690F8E4
:102510003D00002520B984F83C50204600F022F808
:10252000242084F83D002068C16821F40051C16076
:10253000204602F08DFA2068016921F49041016182
:102540002068416921F02A0141612068C16841F495
:102550000051C1602564202084F83D0084F83E00CD
:10256000002070BD30B585B0002400940194029421
:1025700003940068A0F18041B1F590411CBF05B003
:1025800030BD1348C16941F48021C161C16901F4C2
:1025900080210491816941F00801816180690D4DBC
:1025A00000F0080004904FF4806000900220019039
:1025B000039069462846FEF76FFEE814CDE9000453
:1025C000694628460294FEF767FE05B030BD00005C
:1025D00000100240000C014082B002F00FF8184CCD
:1025E000D4F82001006810F0080F0AD0144802F057
:1025F0009BFAD4F82001016800914068009002F035
:10260000C1FDD4F82001006810F0800F1CBF0C48F9
:1026100002F033FBD4F82001016811F0200FDFD065
:102620004068C1B2064802F089FA0088012804D047
:10263000022808BF02F0A6FDD2E702F09DFDCFE719
:102640005004002010B50446406801F0E2FDA16886
:10265000086110BD0068012101F045BE002808BFD7
:10266000704710B50446007E012818BF10BD217BBD
:102670000020012904D0022910D003291ED026E011
:10268000A16881F824000121606801F0F0FDE28A70
:10269000B4F90E10606801F06BFD0CE0A16881F8E0
:1026A00024000021606801F0E2FDE28AB4F9101014
:1026B000606801F05DFD50B1022009E0A1680120D1
:1026C00081F82400A068D4F812100161F4E7032017
:1026D000207610BD01230373C181C2820376437645
:1026E0007047022303730182C28201210176002117
:1026F00041767047006801F0C4BD10B5406801F034
:102700009EFDBDE8104001F0BABC407E7047806875
:10271000006870478068406870478068C06870478C
:10272000806800697047027B0021012A08BFB0F968
:102730000E1008467047406801F075BD006801F052
:10274000CBBD8068B0F91E0070478068D0F81A00D1
:1027500070478068D0F8160070478360C0E90012A7
:1027600000210173C1810182C18201767047032279
:102770000273418209148182012101760021417690
:1027800070478268518280688182704710B5044624
:102790000068032101F0A7FD00281CBF012121765C
:1027A00010BD0068072101F09EBD406801F065BDC5
:1027B00001B244F6E61361F30F0200145943584383
:1027C000014408444042C013B0F5004FA8BF47F68B
:1027D000FF7104DA10F5004FB4BF064901B210468C
:1027E00061F31F4011F5004F04BF48F2010161F38E
:1027F0001F4070470080FFFF70B50546084600F097
:1028000053F82AB203B24FEA254C02FB03F1051438
:102810000CFB1510C0131649B0F5004FA8BF47F6C2
:10282000FF7004DA10F5004FB4BF084600B260F341
:102830000F04104E10F5004F08BF66F30F0402FBA3
:1028400005F00CFB0300C013B0F5004FA8BF47F61E
:10285000FF7103DA10F5004FA8BF01B2204661F303
:102860001F4011F5004F08BF66F31F4070BD000008
:102870000080FFFF0180FFFF70B50546084600F0AD
:1028800013F82AB201B22B1402FB01FC051403FB5E
:1028900005C0C0136A43594360F30F04891A2046E8
:1028A000C91361F31F4070BD00F50041890911F49F
:1028B000407C00F50041C1F387121749C2F1FF03C4
:1028C00019D0BCF5807F1FD0BCF5007F0AD0BCF5C5
:1028D000407F18BF704731F8133031F8121063F39E
:1028E0001F400FE031F8122031F8131062F31F403F
:1028F00061F30F00704731F8122031F81310524283
:1029000062F31F404942F3E731F8133031F81210F7
:102910005B4263F31F40EBE74E5B0008F8B50446EB
:10292000DDE90670A161C4F8A8008C4608481E467F
:1029300015460090074B084A21466046FEF7E8F826
:102940006762C4E90756204600F044FBF8BD00006A
:102950005D29000865290008CD2F000810B500F09A
:1029600039FB10BDF0B58DB0054600208DF8040090
:102970001F4614460E4648090AD0421E002128462A
:1029800002F012FC00280CBF0B2006F01F0676D0C8
:10299000132E80F00483DFE806F0A00A8E9F9E9E2F
:1029A0009D9C9B9A999897969E9E9E9EA0002178AA
:1029B00005208DF8080047296CD028DC0F2961D04C
:1029C0000BDC0F2975D2DFE801F055747455745D86
:1029D0005D5D5D5D5D5D5D5D5D00172952D009DC6B
:1029E000A1F11000072864D2DFE800F054546363BB
:1029F0004C4C4C001D2943D004DC182942D01C2922
:102A00003ED056E041293DD0462943D051E06529CA
:102A100038D01EDC572935D00EDC542932D006DCE4
:102A2000482937D04F2918BF53292BD041E05529C9
:102A300018BF56293DD125E05B292BD004DC58294D
:102A400018BF592935D11DE0612918BF642930D13B
:102A500018E0A1F1740015282BD2DFE800F00B1B61
:102A60001B1B1B1B2A2A2A1B1B2A2A2A2A2A2A2A20
:102A7000131313006278284602F096FBEBE186E11F
:102A80000120E8E16078A27800EB0222284602F0FB
:102A90008BFBE0E16078A278237900EB0220E278FA
:102AA000120402EB03620244284602F07DFBD2E1ED
:102AB000FFE702206BE1217803208DF808008929C7
:102AC00080F064810AE0B3E149E232E220E2F8E119
:102AD000C4E19AE16AE162E25DE162E2880000BF7E
:102AE0007844406887440000240200006A02000025
:102AF00024020000240200006A02000046020000D6
:102B000046020000460200004602000046020000A5
:102B10004602000046020000460200004602000095
:102B20004602000046020000460200004602000085
:102B30004602000046020000460200004602000075
:102B40004602000046020000460200004602000065
:102B50004602000046020000BA040000BA04000069
:102B60006A02000046020000460200004602000021
:102B700024020000A4020000A4020000A40200003D
:102B8000A4020000A4020000A4020000A4020000AD
:102B9000A4020000A4020000A4020000A40200009D
:102BA000A4020000A4020000A4020000A40200008D
:102BB000A4020000A4020000A4020000A40200007D
:102BC000A4020000A4020000A4020000A40200006D
:102BD000A4020000A4020000A4020000A40200005D
:102BE000A4020000A4020000A402000046020000AB
:102BF000A4020000A4020000A4020000A40200003D
:102C00006A0200006A0200006A0200004602000038
:102C100046020000460200004602000024020000B6
:102C20006A02000046020000460200004602000060
:102C30004602000046020000460200004602000074
:102C40004602000046020000460200004602000064
:102C5000240200006A020000A402000046020000F4
:102C60004602000046020000460200004602000044
:102C7000A4020000A4020000460200004602000078
:102C800024020000240200006A0200006A02000020
:102C90006A0200006A0200006A02000024020000CA
:102CA00046020000460200006A020000A402000082
:102CB0004602000046020000240200006A020000F2
:102CC0006A0200006A0200006A0200006A02000054
:102CD0006A0200006A0200006A0200006A02000044
:102CE0006A0200006A02000024020000A402000040
:102CF000240200008E0200008E0200008E020000FE
:102D000046020000460200004602000001AA2846D2
:102D100002F040F800909DF80400002800F04A817D
:102D2000D5E9060C01236A46F02100F015B901AA85
:102D3000284602F02FF800909DF80400002800F0CB
:102D40003981D5E9060C02236A46F021E0470DB02F
:102D5000F0BD01AA284602F01DF800909DF804007D
:102D6000002800F02781D5E9060C04236A46F021EB
:102D7000E0470DB0F0BD01AA284602F00BF8009024
:102D80009DF804000028EED100F014B903208DF85E
:102D9000080000F006B9217807208DF808002846C1
:102DA00001F09DFF8DF8040000F0FBB8002004A99D
:102DB00002460A54401CC0B22028FAD3002005E085
:102DC0000B18401CC0B2DA701D2804D2D5F8A82018
:102DD000125C092AF4D1D5F8A810421D20238A5C80
:102DE0008DF81020C21D0930895C8DF81110D5F8BE
:102DF000A81004AA085C8DF81200D5E9060CF02191
:102E0000E04701208DF80400CEE020796179E37875
:102E100000EB012082B22078617800EB0120A178DC
:102E2000090401EB03610144284601F08FFF12E021
:102E300020796179E37800EB012082B22078617813
:102E400000EB0120A178090401EB0361084401B201
:102E5000284601F093FF8DF80400A2E006A8009038
:102E6000217807AB03AA284602F02CF9BDF91C0013
:102E70005349C0EB0010800081FB00108110A1EBD2
:102E8000E0708DF81000010A8DF81110010C8DF81A
:102E90001210000E8DF81300BDF818008DF8140004
:102EA000000A8DF81500BDF80C008DF81600000A18
:102EB0008DF81700D5E9060C082304AAF021E04795
:102EC0006FE0E279207A237902EB00201FFA80FC80
:102ED0006078A278217800EB0220E278120402EBFD
:102EE0000362104400EB8000364B40000022C3FB1D
:102EF00000204211A2EBE07003B26079A27900EBEE
:102F0000022000B200906246284602F0F3F9A2E7E0
:102F100020786178E27800EB012001B2A07800EB24
:102F2000022002B2284602F033F901208DF8040095
:102F30003AE00C208DF8080004948DF814702249B2
:102F400004A801F024FF8DF8040050B31E48F021BE
:102F500003790268D5E9060CE0470DB0F0BD00200A
:102F600004A904E00A54401CC0B220280DD2D5F8B0
:102F7000A820125C002AF5D1202838BF002204D2F4
:102F80000A54401CC0B22028FAD3D5E9060C2023ED
:102F90000A46F021E04701208DF8040004E00120FA
:102FA000F5E69DF8040028B10023D5E9060C1A4681
:102FB000F021D1E7D5E9060C012302AAFF21CBE7D6
:102FC00067666666898888880C00002010B500F066
:102FD00001F810BD10B504468069616A88478020F9
:102FE00084F8AC00216AA069BDE8104008470000E1
:102FF00001480068FFF7A2BB0400002006480078E3
:10300000002808BF704710B500F008F801F096FCE2
:10301000BDE8104002F092B88C05002010B50E4CAF
:103020002078012818BF10BD608800281CBF608868
:10303000401E02D101F058FB01206080A08810B131
:10304000A088401EA080E088002808BF10BDE0884E
:10305000401EE08010BD00008C0500200148006883
:10306000FFF794BB0400002001480068FFF799BBFC
:10307000040000202DE9F35F5C4801F02FF95C4E5D
:10308000002406F1340134705A480860A1F10C089C
:103090005948C8F8000000F0BFFC02F0DFFC5748B8
:1030A00000F077F906F1100B5448CBF8000006F158
:1030B0000C05534828605348FDF778FC514B524AA1
:1030C00052482968FDF77BFB05F110014F48086065
:1030D000DBF800104B4A286801F0B9F84A4802F0C2
:1030E000B0F94B4800F055F94A4800F052F905F1A3
:1030F00008094748C9F8000005F10C0A4548CAF814
:1031000000004548306200F0AFFF05F1240143485C
:103110000860316A424FC0E9437105F1200141481E
:1031200008600021FDF71CFB3F4800F007F905F19E
:1031300018003D49016005F12C013C48086000F091
:1031400037FF0020FDF706FD012087F824002868DE
:1031500001F05FF83861286801F05BF80014B8826C
:1031600007F128002F1FA0F12803386005F1300176
:103170002A68FFF7F2FA286801F05BF83B6801461D
:1031800000221846FFF7A6FA00983968016028481F
:10319000DBF800100160D9F800104160DAF8001087
:1031A000C0E90214D8F80010C0E904141549C0E9B8
:1031B000061404622968416205F130018162183900
:1031C0000968C162316AC0E90C1405F12401846305
:1031D0000968C0E90F1444648464C46404650199F7
:1031E00008600120307002B0BDE8F09FC8050020E3
:1031F0008C05002090030020E00100202801002021
:10320000AC01002090020020580200200C03002096
:1032100054010020800100205003002014000020F1
:10322000EC0700204404002028030020780300203D
:1032300030080020B0F80031002220F81310B0F858
:103240000031A0F802315B1C9BB2A0F80031802B4A
:1032500024BF0023A0F800315FF0000330F913C051
:103260005B1C9BB26244802BF8D3D31702EB5362F2
:10327000D211A0F804210846704700210A4620F820
:103280001120491C89B28029F9D3A0F80021A0F8A7
:1032900002217047B0F904017047000008B5FEF73D
:1032A00037FB4FF4FA61B0FBF1F0FEF72BFE074954
:1032B000081FFFF7DFFE02F067FB044B04481A1FEC
:1032C00000900121101F02F031F808BD0800002015
:1032D000265B000810B504460078002818BF0020BF
:1032E00012D194F8260000F075FDA0F57F41FF395A
:1032F00007D0218B238A4A1E03FB0200B0FBF1F0AA
:103300002082204600F02CF8E08280B210BD00211F
:10331000018270470178002918BF808A01D000B26D
:103320007047018A026A891AB0F91E20808C5143C5
:10333000CA1701EB124100EB2140F0E710B504463B
:10334000007820B10020E082608A208210BD201D1C
:1033500000F0A0FD84F826002046FFF7D8FF10BD3E
:10336000018A428B914284BF08207047828B8A4237
:103370008CBF0020C08A7047B0F922007047B0F9B6
:1033800006007047408B7047B0F904007047008B0F
:103390007047018881804188C180018C418400216F
:1033A0008160816270478160704741847047C1804D
:1033B000704781807047000070B4B0F90420002489
:1033C00002FB01F6B0F90620B0F914C0B0F91630CE
:1033D000002A04BF0021816014D085684A43A918DF
:1033E00005D5002DC4BF002A6FF0004103E0002D79
:1033F000BCBF002A0F49C2688A42A5BF0269914238
:1034000082608160827F8168057F41FA02F246FA1C
:1034100005F52A446245C4BFACEB0204624603DCF6
:103420009342C4BF9C1A1A462144816070BC10B2FA
:10343000704700000100008070B5D0F80C11044600
:10344000C868D1F8161002B20BB25A43001409141E
:1034500000FB0121C81701EB10400514D4F810013E
:1034600001F0D4FFD4F8081148434FF4167190FBD3
:10347000F1F0684300EB40000749400081FB001079
:103480008110A1EBE071C81701EB10400114204638
:10349000BDE87040FFF7CEBE67666666C169084743
:1034A00070B50446002511B1012908D017E000F0DD
:1034B00012F9B4F85200A4F8440080B90BE0B4F853
:1034C0004400002808BF012509D0401E0004000C5C
:1034D000A4F8440003D121692046884701252846E5
:1034E00070BD4268104730B4038E0AB253430A14C9
:1034F000B0F850104A435200524202EB030CA2EBC8
:1035000003030CEBDC7C03EBD3735FEA6C0C4FEA38
:1035100063034FEA910153D5002B18DA042280F897
:103520003A20ACEB0302D41702EB943201EBA24138
:10353000DA1703EBD23201EB62434FEAEC720CEB89
:10354000D232A1EB624CA0F83CC0C1876CE0002AEB
:103550001BDC4FF0030C80F83AC0A2EB030C4FEADF
:10356000EC740CEB943C01EBAC414FEAE37C03EBD5
:10357000DC334FEAE27C01EB634302EBDC32A3EB8A
:10358000624CA0F83CC0C38717E0022380F83A30B1
:10359000ACEB0203DC1703EB943301EBA3414FEADE
:1035A000EC730CEBD333A1EB634CD31702EBD332A8
:1035B0000CEB62438387A0F83EC0A0F8401052E0B5
:1035C000002B17DB012280F83A20ACEB0302D41762
:1035D00002EB943201EBA241DA1703EBD23201EB9A
:1035E00062434FEAEC720CEBD2328387A1EB624C60
:1035F000C18736E0002A1ADC052380F83A30ACEBAC
:103600000203DC1703EB943301EBA3414FEAEC73A5
:103610000CEBD333A1EB634CD31702EBD33281878E
:103620000CEB6243A0F83EC0A0F840301BE04FF026
:10363000000C80F83AC0A2EB030C4FEAEC740CEBE0
:10364000943C01EBAC414FEAE37C03EBDC3301EB50
:1036500063434FEAE27C02EBDC328187A3EB624CEE
:10366000C387A0F840C00029D8BF002189B2418695
:10367000002BD8BF00239AB28286BCF1000FD8BFBE
:103680004FF0000C1FFA8CF3C386B0F84EC0BCF1AB
:10369000010F02D0816930BC0847B0F948C0BCF1C5
:1036A000000FB0F854C0CCBF6144A1EB0C014186BF
:1036B000B0F94A1000291FFA8CF1CCBF1144511AFD
:1036C0008186B0F94C1000291FFA8CF1CCBF194447
:1036D000591AC186DEE781680847C1680847416911
:1036E0000847416F91F88820022A11D1CA68896F72
:1036F000C1F30F215161426F1169D26FC2F30F22E2
:103700004A61416F4A69D1F88010C1F30F215161BC
:10371000012180F872104630704700002DE9F04713
:103720000446406F00278568E7652766676684F86A
:103730007070286A20F0550020F4A060286240498B
:10374000616040490326A16184F87160204684F8D5
:103750003A6000F048FA606F04F1700304F1380138
:1037600090F88920284602F0A9F9204600F00EFAC8
:10377000204684F870703449616084F8717084F870
:103780003A7000F030FA606F04F1700304F1380110
:1037900090F88920284602F091F9204600F0F6F9C9
:1037A000E06D2C4BC108E165206E05F11809C108D8
:1037B0002166606EC1086166244961602449A16187
:1037C000187800EB09021168D81D4FF0080890F82E
:1037D00000C008FA0CFC21EA0C01116099784944F8
:1037E000D1F800A0877808FA07F72AEA070AC1F893
:1037F00000A01B794B44D3F80090007908FA00F838
:1038000029EA08001860B4F86C006863B4F86C002A
:10381000A863B4F86C00E863106840EA0C0010601C
:10382000086838430860186840EA0800186084F89F
:103830003A60296A40F2555008432862BDE8F08793
:1038400085390008C73A0008DB39000859380008F4
:10385000053B0008065E000870B4426F9268136A68
:1038600023F48053136290F83AC01822436F02EB9E
:103870008C029A5814684FF6FF7202EA440530240D
:1038800004EB8C041B591B6802EA43043C4A530CAA
:10389000BCF1060F66D2DFE80CF01D414103031DA9
:1038A000D0F85CC0ACEB050C1CF5004FD8BF0A800B
:1038B00005DDBCF5004FACBF0B80A1F800C0D0F80F
:1038C00060C0ACEB040C1CF5004F47DDBCF5004FAD
:1038D0003FDA45E0D0F860C0ACEB050C1CF5004FBA
:1038E000D8BF4A8005DDBCF5004FACBF4B80A1F8C6
:1038F00002C0D0F864C0ACEB040CB1F90240A4449F
:10390000CCF1000CBCF5004FA8BF0B802ADA1CF5E7
:10391000004FD4BF0A80A1F800C023E0D0F85CC0FB
:10392000ACEB050C1CF5004FD8BF0A8005DDBCF5DB
:10393000004FACBF0B80A1F800C0D0F864C0ACEB66
:10394000040CB1F90040A444CCF1000CBCF5004FCC
:1039500001DB4B8006E01CF5004F01DC4A8001E0F2
:10396000A1F802C00A88A0F848204A88A0F84A2096
:103970000A88498811444942A0F84C1070BC70472D
:103980000180FFFF426F9268136A23F48053136231
:1039900090F87020102A1CD290F871304FF0180C5B
:1039A000426F0CEB8303D2581268C36D4FF0300C9A
:1039B0001A44C26590F87130426F0CEB8303D25801
:1039C0001268036E1A44026690F87020521C80F848
:1039D00070200020088048807047426F9268136A08
:1039E00023F48053136290F87020102A10D290F8BC
:1039F00071304FF0300C426F0CEB8303D2581268D9
:103A0000436E1A44426690F87020521C80F8702071
:103A1000002008804880704710B4436FD3E901C18B
:103A20001A680B6823F001030B60436F93F88A3028
:103A300033B16FF080030B61CB6843F08003CB6040
:103A40004B6943F001034B610C6A40F25553234329
:103A50000B62164BA1F18044B4F5963459680CBF43
:103A600041F4806141F4003159600CBF4FF4805142
:103A70004FF4C041A0F86E10916841F001019160CF
:103A8000DCF8081041F00101CCF808106FF00401D7
:103A90001160516841F08001516070218166002100
:103AA00080F87210A0F84E1010BC7047002004E09F
:103AB00090F872200021012A03D14021002280F8D1
:103AC00072200846704790F8711080F83A10B0F8EC
:103AD0006C10491E8AB20146406F4B8E806843636A
:103AE0008B8E8363CB8EC3630264006A10F48050B4
:103AF00018BF01200A8F012A18BF70470120002239
:103B00000A87704730B470218166456F818FB0F8A5
:103B10006C20B5F88440A2EB010CC38F1FFA8CFC1B
:103B2000A44506D9032180F83A1091B2491E89B202
:103B300014E0CB1A9BB2B3EB4C0F84BFB5F88620D0
:103B4000891A0AD8214489B2914207D36022826639
:103B5000B0F86C20C1EB4201491E89B2AB68024645
:103B6000408E5863908E9863D08ED8631964186A1B
:103B700010F4805018BF0120118F01291CBF30BCE8
:103B8000704701200021118730BC7047416F896860
:103B9000CA6822F00102CA60002280F842204A6C02
:103BA00022F400424A64426F92F88830022B11D10D
:103BB000D368926FC2F30F225A61436F1A69DB6FA9
:103BC000C3F30F235361426F5069D2F88020C2F3D0
:103BD0000F2242616FF001020A61086910F0010FC3
:103BE000FBD00A61704710B4416F0022896880F8E9
:103BF0004220B0F86C2052084A63B0F86C2052089A
:103C00008A63B0F86C205208CA63B0F86C20521F67
:103C10000A646FF001030B610A6912F0010FFBD017
:103C20000B614A6C42F480624A644A6C42F400427E
:103C30004A64426F92F888C0BCF1020F1CD1D1F8DF
:103C400020C040F2555434EA0C0CD2F80CC0926FEC
:103C5000C2F30F2217D0CCF81420426FD2F810C054
:103C6000D26FC2F30F22CCF81420426F5069D2F801
:103C70008020C2F30F2242610B61C86840F001004E
:103C8000C86010BC7047CCF81020426FD2F810C04A
:103C9000D26FC2F30F22CCF81020426F5069D2F8D5
:103CA0008020C2F30F220261E6E7000030B450F832
:103CB000742F116893685268D1F808C02CF4004C36
:103CC000C1F808C0D2F808C02CF4004CC2F808C0F3
:103CD00050F83AC94825047805EB84045CF804C020
:103CE000C1F838C0D0F83AC010F8344B602505EB65
:103CF00084045CF804C0C2F838C053F820CF4CF4F8
:103D0000805C43F808C9B0F800C08C680CF4E04C43
:103D100024F4E04444EA0C0CC1F808C030F806C9A9
:103D200094680CF4E04C24F4E04444EA0C0CC2F82F
:103D300008C0D1F808C04CF4004CC1F808C0916824
:103D400041F4004191600A4950F8222989791944C7
:103D5000D1F800C0074B73259C799B7905FA04F4D0
:103D60002CEA040C9A404CEA02020A6030BC70470C
:103D7000065E00080D5E0008416F0122D31E8968AF
:103D800080F842200B6100224A638A63CA630A6991
:103D900012F0010FFBD00B614A6C42F400424A64FE
:103DA000416F91F88820022A18BF7047CA68896F4E
:103DB000C1F30F211161426F1169D26FC2F30F225B
:103DC0000A61416F4869D1F88010C1F30F21016188
:103DD000704700001C4910B451F82020D2F800C0F0
:103DE000127902EB4203092A99BF4FF0007444EAAA
:103DF0000353164C04EB03531A434FF4407494FAE4
:103E0000A4F44FF40073B4FA84F4E3400CEB83039E
:103E1000D3F82CC002F01F022CF01F0C4CEA020257
:103E2000DA6251F820201268D36C936843F4A0033F
:103E3000936051F820000068016811F0020FFBD078
:103E4000C06C10BC80B2704784080020000020FEC7
:103E500010B50E4C6078012818BF10BD2078FFF710
:103E6000B9FF6080014602206070094A207852F84C
:103E70003030002B08BF10BD4FF0000C02EBC00229
:103E800084F801C05268BDE810401847CE050020F4
:103E90009408002070B4FF21424B002253F822C046
:103EA000BCF1000F1DD09CF804400579AC4206D14E
:103EB000DCF800C00468A44504BF11460422521C6B
:103EC000D2B2042AEAD3042968D243F82100364B3F
:103ED000002243F831200268936813F0010F04D0E8
:103EE00023E0042988BF1146E9E7536823F0200343
:103EF000536002686FF0020313600268536823F096
:103F00008003536002686FF00403136002689368D3
:103F100043F0010393600268936843F004039360E5
:103F20000268936813F0040FFBD1D36A23F4700383
:103F3000D3620279D0F800C04FF00073092A02EB77
:103F4000420492BF43EA0454184D05EB0454224343
:103F5000846893FAA3F302F00070B3FA83F3D840B5
:103F60000CEB8000D0F80CC002F0F8734FF0F87240
:103F700092FAA2F5B5FA85F592FAA2F223FA05F5BE
:103F80000726B2FA82F206FA05F523FA02F22CEAC3
:103F9000050C04FA02F24CEA0202C26070BC084648
:103FA000704700008408002094080020000020FED4
:103FB000002181604160C160016101214161704760
:103FC00070B5044690F82600FFF704FFA0F57F4186
:103FD0008446FF3921D094F82510206A20F811C0BA
:103FE0000021228B0846002A88BF236A07D900BF18
:103FF00033F81050401CC0B229448242F8D8B1FBBB
:10400000F2F0E080A4F804C094F82500511E884224
:10401000B4BF401C002084F82500204600F002F8C0
:10402000208170BDC188428B914284BF02207047BD
:10403000808B88428CBF042000207047418B828B8C
:10404000038B11444A080021002B07D9036A23F887
:104050001120491C038B89B28B42F7D88280C28021
:10406000002180F82510704710B504460C30FFF78A
:1040700011FF84F826002046FFF7E0FF10BDB0F9DD
:104080000C007047B0F904007047B0F91000704799
:10409000B0F90C10B0F91400C1EBC13191FBF0F094
:1040A00000B2704730B4B1F90050012490F803C059
:1040B00000230278002DBABF694289B20988858A37
:1040C0008D4238BF0123C58A8D4288BF0123B0F9D4
:1040D00012100029BABF494289B2418A058B8D422C
:1040E00028BF002B04D062453CBF511CCAB202E07D
:1040F000624538BF0022624508BF00240270204696
:1041000030BC704770B50546007800280CBFAC681D
:104110006C68E968012904D9AA69A1F10101144474
:1041200005E005D169884FEA01444FF00001E960DC
:10413000012805D0E01704EB10400014AC6070BDFE
:10414000E01704EB104006146869FFF798FF301A77
:1041500001B22869FFF730F90104C5E9014170BDDA
:104160000178012918BF704700690021FFF71BB9CA
:104170002DE9F0410446007817460D46012660B14E
:104180006068C11700EB1140E18B0014A942A4BF85
:10419000B4F924108D4212DA0FE0204600F051F8F5
:1041A000E18CA94205DAB4F9281000268D421CDA08
:1041B00003E0B4F928108D4208DA002615E0218CBE
:1041C0008D42BCBFB4F92210A942F6DB87B16580ED
:1041D000A18B4FF47A727943B1FBF2F1491C281A92
:1041E000000490FBF1F0E160A0613046BDE8F08191
:1041F00021782804012914BFA06060600020E060DD
:10420000F2E710B504464069FFF739FF000460602B
:1042100010BD0146C28D098E62F30F0061F31F408D
:104220007047C08B70474068C11700EB1140001405
:104230007047B0F92C007047B0F92400704740690E
:1042400070478068C11700EB114000147047C0E947
:10425000041290F82A100170818D09044160C18D0B
:104260000904816000214180C16081617047017053
:104270000021C1607047416170470021C1608161C8
:104280007047027800210B2A04D109210170002116
:104290008180012108467047B0F802C003784CEADB
:1042A000010C2CEA02024280B0F804C00A2B4CEA4E
:1042B0000101818005D012B10A2101700B46184618
:1042C0007047002AFBD10B2101700B46F7E781886C
:1042D000408841EA00407047007870470021017033
:1042E00041808180704710B502780024152A6CD275
:1042F000DFE802F00E1B3033525E636669706B6B51
:104300000B21262B3D424D584800002966D05CE029
:1043100003291CBF01290C2960D0072903D00022E2
:104320008021FFF7B9FF204610BD07291CBF0D29CA
:104330000E2953D049E00E2918BF07294ED044E07A
:104340000F2918BF072949D03FE0022918BF0729C4
:1043500044D03AE0072941D037E0072918BF102997
:104360003CD004291CBF1129012937D02DE0112987
:1043700018BF072932D028E012291CBF07291429A9
:104380002CD022E0122918BF072927D01DE00429CC
:1043900018BF072922D018E013291CBF07290529B7
:1043A0001CD012E004291CBF0729052916D00CE0F7
:1043B000062918BF072911D007E007290ED004E00D
:1043C00008290BD001E0092908D0032918BF0129C9
:1043D000A9D0A2E7002918BF0C29F6D14FF001049B
:1043E0000170A0E710B5084C2078022805D1FDF730
:1043F00061F8FDF79DFD00202070C0B2401C2070C8
:10440000BDE81040FEF7FABDD2050020704700005D
:10441000084810B5406F8068016911F0800F05D021
:104420006FF0800101610348FFF75BF9BDE81040C0
:10443000FEF7F4BDE001002003496FF001000860C1
:104440000248FFF733BC0000102C0140E0010020BF
:104450000748006AC16811F0010F1ABF016911F025
:10446000010F70476FF0010101610148FCF797BA35
:1044700090020020F0B402681E4B1F4C1F4D204ECE
:10448000DFF880C0984218BF604508D0B0F1804F77
:1044900018BFA04203D0A84218BFB04204D14F6851
:1044A00022F0700247EA0202984218BF604508D025
:1044B000B0F1804F18BFA04203D0A84218BFB0424D
:1044C00004D1CC6822F4407244EA02024C6922F022
:1044D000800242EA040202608A68C2620A6882625A
:1044E000984212BF6045096901634FF001014161C3
:1044F000F0BC7047002C0140000400400008004060
:10450000000C00400034014002689368D1F804C0F8
:1045100023F070034CEA0303D1F800C023F0070333
:104520004CEA030393604A6812F00F0F59D112113D
:10453000082A56D2DFE802F055555555122B410492
:104540000068D1E90232D1F810C0816843EA0C2337
:1045500021F47F411A431143816042E00A68052A31
:1045600004BF012070470268136AD2F820C02CF003
:10457000010CC2F820C00268D2F818C009692CF0FA
:10458000F00C4CEA011191610068036229E00068B7
:104590000B698A68016AD0F820C02CF0010CC0F8C1
:1045A00020C0D0F818C021F00A012CF0F00C4CEA21
:1045B000031311438361016213E000688A6809698B
:1045C000036A23F010030362D0F818C0036A2CF4C6
:1045D000704C4CEA013123F0A00343EA02128161DE
:1045E00002620020704700000349002089880029EA
:1045F00008BF0120704700008C050020054810B559
:104600000068FFF7C3FA0022BDE81040802102488D
:10461000FFF742BEB4050020C80500202DE9F84F81
:104620004FF0000A2C48FCF7FAF82C480068FFF716
:1046300006FE8346FFF726FDDFF8A490074669468D
:10464000D9F80000FEF74DFF0098FEF7B1F880465C
:104650003946FEF7D1F8234C064631B2B4F91000C2
:10466000411AA9F114000068FEF7A6FE60F30F05D9
:10467000B4F91200A0EB2641A9F110000068FEF782
:104680009BFE294660F31F4109F10C000068FCF70E
:104690003CF805465846FFF7F8FC39462846FEF731
:1046A000EBF883465946D9F80000FEF71CFFC4F822
:1046B00016500099E660C4E90018C4F81AB02784BF
:1046C000012805D10022012109F11400FFF7E4FDC2
:1046D0005046BDE8F88F00009002002098050020A9
:1046E000B4050020EC07002038B50020ADF800002C
:1046F00069468948FCF7A9F888480068FEF79CFEDF
:104700008748FFF7E9FD132828BF38BDDFE800F030
:104710000A60A1199CC4D7DFF5FF1818186C7B88B4
:1047200032414E007F48FCF748F8002808BF38BDEA
:1047300000217C48FCF74CF803217948FFF7D3FDB2
:1047400038BD7848FCF742F858B177480068FFF761
:1047500013FB142000F066F910217148FFF7C3FD28
:1047600038BD01216F48FCF733F801216C48FFF791
:10477000BAFD38BDFFF738FF002808BF38BD6A48CA
:1047800000210068FEF78CFE11216548FFF7ABFDA4
:1047900038BD654801210068FEF782FE002808BF89
:1047A00038BD12215E48FFF79EFD38BD5A48FCF720
:1047B000E1F804215A48FFF796FD002808BF38BDEC
:1047C0000020FCF7C7F958480068FFF70CFA38BD1D
:1047D00055480068FFF7D0FA142000F023F90D21A6
:1047E0004F48FFF780FD38BDFFF7FEFE002808BFE9
:1047F00038BD4D4800210068FEF752FE0E214848A2
:10480000FFF771FD38BD484801210068FEF748FEFA
:10481000002808BF38BD0F214148FFF764FD38BDAF
:104820004249012081F82400414842490068FFF7CD
:1048300022FD3C48FBF7CEFF02213948FFF753FD2C
:10484000002808BF38BDBBE705213548FFF74BFD01
:1048500038BD3448FBF797FF90B133480068FFF745
:1048600095F9334C01212068FFF701FD2A492068A2
:10487000FFF701FD072104F13000FFF734FD38BDDB
:10488000002060F30F042A480068FFF73BFC60F348
:104890001F442648046138BD0020FCF791F9002030
:1048A000FCF73EF906211E48FFF71DFD2048006871
:1048B000FFF7A7FC20480068FDF7D0FE38BD1E4872
:1048C0000068FDF7CBFE0020FCF72AF938BD16483A
:1048D0000068FFF75BF90020FCF73CF90F4800681F
:1048E000FEF7CBFC4FF4487000F0A2F808210C480A
:1048F000FFF7F9FC38BD0AE0FFE700F09FF8002859
:1049000008BF38BD09210648FFF7EDFC38BD00217E
:104910000348FFF7E8FC38BD90020020BC050020EA
:10492000C80500200C030020B4050020EC0700207F
:1049300098050020580200209405002006480078C1
:10494000012818BF704710B5002000F007F8BDE837
:104950001040FFF77DBA00008C0500202DE9F041E2
:1049600004002948466806D12848006AFFF728FB5A
:10497000B1B200EA01052648022D50F824000CBF10
:1049800001210021FBF7ECFE224850F82400FEF73D
:10499000A1FC214E074656F82400FEF77FFD384360
:1049A00005F004010143C84382B204EB440306F15D
:1049B000140000EB43052846FFF76EFC2846FFF77E
:1049C0008BFC0A2809D00B2818BFBDE8F08156F8E7
:1049D0002400BDE8F041FEF77EBE104850F82400E8
:1049E00000281CBF0021FBF7F3FE56F82400FEF759
:1049F00072FE2046FCF7AEF8094850F82400BDE8E6
:104A0000F041FEF73ABC0000485B00088C0500202E
:104A1000B8050020B0050020B4050020A80500203E
:104A2000BC05002001498880704700008C050020EB
:104A30000149C880704700008C0500200349002010
:104A4000C988002908BF0120704700008C0500209C
:104A500070B5044600680169E26821F440511143D1
:104A600001612169A0680843616901432068C26847
:104A700022F4037222F4A0521143C16020684169FC
:104A8000A26921F44071114341612068A0F1804185
:104A9000B1F59C313CD0FCF741FF00BF00EBC001F9
:104AA00001EB001260681C498000B2FBF0F3A1FB2F
:104AB0000353B2FBF0FC5B096FF018056B430CEB82
:104AC000830C322303EB0C1CA1FB0C5C4FEA5C1C37
:104AD0000CF0F005B2FBF0FCA1FB0C6C4FEA5C1C87
:104AE00005EB0C1CB2FBF0F5B2FBF0F0A1FB0020D3
:104AF00040096FF01802504305EB800003EB0010F3
:104B0000A1FB00102168C0F343106044886070BDB1
:104B1000FCF714FFC2E700001F85EB51002180F86D
:104B20001C117047FBF7DFBF08B508218DF8001096
:104B300001236A46FF2100F075F808BD38B590F8EA
:104B40001C212B4D0446002A4FD094F81D31C9B2C8
:104B50008BB10022012B15D094F89AC00CF1020CF5
:104B600063451AD204F19900195494F81D01401CB0
:104B700084F81D0139E084F89910208A60821D4D67
:104B80000120F5E784F89A10022084F81D01C8B2CC
:104B9000802828BF84F81D2127E084F81B11628239
:104BA000D4F82001144DC16821F02001C16084F8BF
:104BB0001C2104F19900FBF77FFF94F81B11884238
:104BC0000AD1D4F808C094F89A3094F8991004F1F6
:104BD0009B022068E04708E00A208DF800000123CE
:104BE0006A46FF21204600F01DF8284638BD000027
:104BF000145E0008165E0008185E000890F81C118C
:104C000000291CBF01207047002180F81D110121DF
:104C100080F81C11D0F82001C16841F02001C1606A
:104C20000220704710B5044690F8970000281CBF7A
:104C3000012010BD04F1160C2175581E6375C0B219
:104C400007D300BF12F8011B401E0CF8011BC0B2B5
:104C5000F8D204F11400FBF72FFF84F8960000212E
:104C600084F89810012184F89710D4F82001C168C5
:104C700041F08001C160022010BD90F897200146EC
:104C8000002A08BF704791F89820002A08BF0A7DC3
:104C90000CD0012A08BF4A7D08D04B7D9B1C9A424C
:104CA0003ABF01F11403D25C91F89620D0F820317C
:104CB0005A604B7D91F898209B1C9A423EBF501C35
:104CC00081F898007047D1F82001C26822F0800274
:104CD000C260002081F89700D1E90001084770B553
:104CE0008268007D01240F2952F820502AD2DFE883
:104CF00001F0291915082A2A111D212529292929F8
:104D000015002846FDF71AFD062804BF2846FDF7C2
:104D10004CFD18E02846FDF711FD18B12846FDF7B7
:104D200040FD10E02846FDF731FD0CE02846FDF778
:104D3000E1FC08E02846FDF78DFC04E02846FDF77D
:104D400081FC00E00024204670BD000010B583689F
:104D5000007D01EB8101DFF820C053F820004B00FB
:104D60000021CCFB03135911A1EBE37109B2FDF74C
:104D7000B1FC012010BD00008988888810B58368C7
:104D8000007D53F82000FDF7ACFC012010BD002091
:104D9000704700002DE9F0418446C368007DDCF8CF
:104DA0000840012553F8203054F820600020002AE4
:104DB00018BF1570C04C232900F0538115DC23293E
:104DC00040D2DFE801F04B5055955A676C718FBBAC
:104DD000C0C5CAD0D5DA3F3F3F3F3F3F3F3F3F7658
:104DE0007BDF3F3F80FBFA3FF90002272F2977D076
:104DF0000BDCA1F124010B2924D2DFE801F0E8E764
:104E0000E6DFDEE5E4E3E2E1E0006E2969D00DDCF7
:104E1000402900F00A8104DC30297DD03F297CD074
:104E200010E041297AD05B2967D00BE0722908BFD6
:104E3000BDE8F0810CDC6F297BD0702904BF9F484E
:104E4000BDE8F081002A1CBF00211170BDE8F0818F
:104E5000732918BF8129F5D1BDE8F081604600F0C3
:104E600055F9BDE8F081986ABDE8F041FFF72FBA27
:104E7000986ABDE8F041FFF72FBA3046FDF75BFCBA
:104E8000C0EB0010800084FB00108110A1EBE070EB
:104E9000BDE8F0811868BDE8F041FEF775BA186802
:104EA000BDE8F041FEF76BBA1868BDE8F041FEF7C7
:104EB00063BA186BBDE8F04100F0A8BAD86ABDE843
:104EC000F041FEF727BA3046FDF717FCC0EB0010A3
:104ED000800084FB00108110A1EBE070BDE8F08140
:104EE00055E021E03046FDF71BFC00B2BDE8F08143
:104EF0003046BDE8F041FDF708BC3046FDF705FC43
:104F00000128BAD13046FDF70EFCC0EB001080003E
:104F100084FB0010811003E062E07BE01DE008E00C
:104F2000A1EBE070BDE8F0811868BDE8F041FEF744
:104F30002EBA1868BDE8F041FEF724BA5868BDE8FB
:104F4000F041FEF721BA5868BDE8F041FEF717BA04
:104F50005868BDE8F041FEF70FBA3046FDF7E0FBB8
:104F60000014BDE8F0819868BDE8F041FEF70CBA86
:104F70009868BDE8F041FEF702BA9868BDE8F041D4
:104F8000FEF7FAB9D86BBDE8F041FEF783B99CF89B
:104F90001420DCF8101051F822200021B7EB127F0A
:104FA00014BFB5EB127F9969C2F30362022A14BFE2
:104FB000012AD96900290BE04BE046E041E076E0A8
:104FC00071E06CE067E062E05DE058E053E04DE0E6
:104FD00008BFBDE8F0810846BDE8F041FFF752B8D0
:104FE0009CF81420DCF8101051F822200021B7EBB7
:104FF000127F14BFB5EB127F9969C2F30362022AD4
:1050000014BF012AD9690029ABD0BDE8F041084698
:10501000FFF73EB8586AFFF704F9C0EB00102849C3
:105020008000A1FB0010C0089BE7586AFFF704F955
:10503000C0EB0010800084FB00108110A1EBE07039
:105040008FE73046FDF769FB0EE03046FDF765FB64
:105050000FE05969002984D0BDE8F0410846FBF70C
:10506000D7BA3046FDF753FB00B27AE73046FDF77A
:105070004EFB001475E73046FDF74CFBF4E7304675
:10508000FDF748FBF5E73046FDF74AFBECE7304615
:10509000FDF746FBEDE73046FDF75BFBE4E7304606
:1050A000FDF757FBE5E73046FDF74FFBDCE7304601
:1050B000FDF74BFBDDE70000676666667A84A63481
:1050C000CDCCCCCC2DE9F0478946C168007D0124C8
:1050D000DDF8208051F820001E4617464569002D56
:1050E00008BF00240FD049462846FBF77DFA3880D8
:1050F00049462846FBF77EFA308049462846FBF7AA
:1051000080FAA8F800002046BDE8F087007D7047CF
:1051100010B5FDF76DFF18B1BDE81040FDF7A4BF55
:10512000BDE81040FDF79ABFDDF800C00171002115
:10513000C0E902230175C0F810C0704709484188D2
:1051400011B14188491E41808188012902D9818895
:10515000491E81800188012998BF70470188491E36
:1051600001807047D4050020037901228B4294BF4F
:10517000002201751046704701494F208880704712
:10518000D40500200149002088807047D405002004
:10519000D0F808C0007D61F30F0319465CF82000C9
:1051A00062F31F41FDF7E3BA2DE9F04115460246CF
:1051B0008368007D01262CB253F82070D3680A2939
:1051C00053F8200068D008DC0A2916D2DFE801F085
:1051D0001915153E152F3439555F0E2979D006DC87
:1051E0000B295ED00C2961D00D296DD005E00F2967
:1051F00074D0412977D05B2909D000263046BDE81C
:10520000F081E9B21046FFF7AFFF0646F6E705EB7F
:105210008500374A40000021C2FB00104111A1EB7C
:10522000E07001B200223846FDF754FAE6E7006864
:105230002146FEF7BEF8E1E700682146FEF7B7F821
:10524000DCE700682146FEF7B0F8D7E715F0FF0F5E
:1052500007D13846FDF775FA014600223846FDF7BA
:1052600040FAE8B20128C9D13846FDF764FA014690
:1052700000223846FDF72EFAC0E73846FDF750FA0F
:1052800064F30F0001463846FDF771FAB6E740684F
:105290002146FEF78EF8B1E740682146FEF787F811
:1052A000ACE740682146FEF780F8A7E73846FDF7EF
:1052B00037FA64F31F4001463846FDF758FA9DE778
:1052C00007E001E00AE00EE080682146FEF771F891
:1052D00094E780682146FEF76AF88FE780682146E8
:1052E000FEF763F88AE721463846FDF74AFA85E774
:1052F000898888882DE9F0410F46C168007D1D46E8
:10530000069E51F82000394644692046FBF75AF9B9
:105310002A4639462046FBF75BF932463946204695
:10532000FBF75CF90120BDE8F08100002DE9F047B2
:1053300082B00546144C1548DFF848C00A9E1F4647
:1053400090468946C4F808C090E80E048CE80E0424
:10535000D0E90410CCE904100D48FFF7E3FB0D4839
:10536000CDE900060C4B0D4A0949A068FDF7D6FAB5
:1053700000953B4642464946A068FFF7D5FE02B07D
:10538000BDE8F087B4080020D4050020C007002045
:10539000500400201D4B0008FD4B0008254C000860
:1053A00038B5194CD4F82001006885B215F0080F03
:1053B0000AD02046FFF7B8FBD4F82001016800911D
:1053C00040680090FFF7DEFE15F0200F10D0D4F8F3
:1053D00020014068C1B20C48FFF7B0FB00880128EB
:1053E00004D0022808BFFFF7CDFE01E0FFF7C4FE9E
:1053F000D4F82001006810F0800F08BF38BD0248C3
:10540000BDE83840FFF739BC50040020C18840880F
:105410004843000C704700218180C1808181C18197
:1054200041820170016241620185018680F82C1081
:1054300080F82D10C28EC28580F8321080F83310AB
:10544000704710B5FFF7E7FF10BD012180F833105A
:10545000704770B490F82C30002B1CBF70BC7047A4
:105460001AB3838E5A434FF47A73B2FBF3F2521C91
:1054700092B20285468BD0F81CC0B0F90E50447829
:1054800006EB86060CFB01FC760095FBF4F39CFB17
:10549000F6FCACEB03031B0493FBF2F262430262E3
:1054A00041852904416270BC70478181438BC26988
:1054B00003EB83034A435B0092FBF3F243785A43C6
:1054C000C28100220285418570BC70470186427806
:1054D00091FBF2F2C28081807047000096B0FBF72A
:1054E000F1FF0024069405940B9401250A9410946E
:1054F000149428041594029403940E94CDE900505A
:105500000C940D941394119412944FF00208049586
:10551000CDE907804FF4E01009906846FCF75AFA8D
:1055200008B172B6FEE70F20CDE90A084FF480609B
:10553000CDE90C4002210AA80E94FCF701F908B14C
:1055400072B6FEE74FF400401290CDF8408010A8EC
:10555000FCF760F808B172B6FEE7FCF7D3F9FB4E32
:105560000094019402940394B06940F02000B0616B
:10557000B06900F020000490B06940F01000B06104
:10558000B06900F010000490B06940F00400B06110
:10559000B06900F004000490B06940F00800B06108
:1055A000B069DFF8ACB300F00800049000224FF4BB
:1055B00040715846FBF772FF40200090E548CDE966
:1055C00001046946E448FBF767FE4FF4805ACDE9D1
:1055D00000A4694658460294FBF75EFEB715CDE974
:1055E00000754FF0030969465846CDE90289FBF77B
:1055F00053FE7015CDE90005CDE9024869465846CD
:10560000FBF74AFE706940F0010070617069009418
:1056100000F00100D248019402940394049405948C
:105620000694079408940994CC4987600160047338
:105630000475F61446604FF460210561C161FBF703
:10564000C1FC08B172B6FEE74FF00A08CDF818A009
:10565000CDF81090CDF80080CDE901548DF81540BB
:105660008DF814506946BE480394FBF7ABFA08B1B5
:1056700072B6FEE74FF00B0B6946B948CDF800B0A3
:10568000FBF7A0FA08B172B6FEE70C20009069465D
:10569000B348FBF797FA08B172B6FEE70520099404
:1056A000CDE9070507A9AE48FBF7DEFB08B172B6E6
:1056B000FEE7AD4800940194029403940494059489
:1056C0000694A849876001600473047546604FF42E
:1056D00060210561C161FBF775FC08B172B6FEE798
:1056E000CDF818A0CDF81090CDF80080CDE9015488
:1056F0008DF815408DF8145069469B480394FBF7CC
:1057000061FA08B172B6FEE769469748CDF800B075
:10571000FBF758FA08B172B6FEE74FF00C0B69467A
:105720009148CDF800B0FBF74DFA08B172B6FEE72C
:105730000F94109411941294139414941594089443
:1057400009940A940B940C9489480D940E94009437
:105750000194029403940494059406948349079455
:10576000C0E90014202181604FF4E161C0E9031712
:10577000C0E90554FCF74AFC08B172B6FEE77C4864
:10578000FCF766FE08B172B6FEE706200F90102007
:1057900010900FA97648FCF789FE08B172B6FEE7B3
:1057A000149414A972481594FCF7EFFB08B172B673
:1057B000FEE76020CDE908040A940B940C940D9444
:1057C000002208A96A480E94FCF72CFD08B172B6B5
:1057D000FEE7042208A96648FCF724FD08B172B66A
:1057E000FEE7082208A96248FCF71CFD08B172B662
:1057F000FEE77020089040F2077009900C2208A97B
:105800005B48FCF70FFD08B172B6FEE74FF480600D
:10581000CDE900601C200794CDE90270CDE904A415
:1058200069465348FCF788FB08B172B6FEE750485A
:10583000FCF7BCFC4F4801940594039407940A9428
:105840004FF080410B94C0E9001440F23F61C0E981
:105850000241046184610820049008900295694621
:10586000CDF8009006954348FCF714FC08B172B6D9
:10587000FEE70A940AA93F480B94FCF786FB08B19F
:1058800072B6FEE73D483C4901604FF4E131C0E9A2
:105890000114C460C0E9044B8461C461FCF731FEAB
:1058A00008B172B6FEE7FDF7F9FC364834490160ED
:1058B0004FF48271C0E90114C4604FF48021046187
:1058C000C0E905411021C0E907144462C0E90A4853
:1058D000FCF764FA08B172B6FEE70022022112203A
:1058E000FBF754FE1220FBF741FE0022114619205F
:1058F000FBF74CFE1920FBF739FE0122042118208A
:10590000FBF744FE1820FBF731FE002211460B2066
:10591000FBF73CFE0B20FBF729FE002203211C2095
:10592000FBF734FE1C20FBF721FE01220321272078
:10593000FBF72CFE2720FBF719FE0022032117207E
:10594000FBF724FE1720FBF711FEFEE700100240D4
:10595000000C01400000211000080140002401401B
:10596000F00500200028014020060020002C014006
:10597000A8060020F006002000480040380700205C
:10598000003001405006002038B42E484FF48032D9
:1059900082610021816182618169009182610021BF
:1059A000816182618169531C00914FF0010C836118
:1059B000C0F818C08361816902240091911C816143
:1059C000846181618169009120491F4C40258C616F
:1059D0008D618C618C6904250094841384618561D8
:1059E0008461846900941A4C80258C618D618C617E
:1059F0008C690094174C20258C618D618C618C69B9
:105A000000948B61C1F818C08B6189690091826133
:105A1000002181618261806900900F48826181610B
:105A20008261816900918261002181618261816965
:105A3000009182610021816182618069009038BC9F
:105A4000704700000008014040000100000C0140C8
:105A5000800001002000010000100140164981B0C3
:105A6000C86910F0010F4FF0804013D041684268C0
:105A700001F0700122F0700242F02002426042699F
:105A800042F001024261426822F07002114341601B
:105A900001B07047CA6942F00102CA61CA6902F0E6
:105AA00001020092426942F001024261C86920F09D
:105AB0000100C86101B070470010024070B4D0F816
:105AC00000C01CF0600C04BFD0F800C00CF0100C3B
:105AD000602434EA0C0C4FF0010507BF520102F1BB
